S012000063616C63756C61746F722E73726563E8
S11300000C94BB000C94D8000C94D8000C94D80029
S11300100C94D8000C94D8000C94D8000C94D800FC
S11300200C94D8000C94D8000C94D8000C94D800EC
S11300300C94D8000C94D8000C94D8000C94D800DC
S11300400C94D8000C94D8000C94D8000C94D800CC
S11300500C94D8000C94D8000C94D8000C94D800BC
S11300600C94D8000C94D8000C94D8000C94D800AC
S11300700C94D8000C94D8000C94D80000407A104A
S1130080F35A00A0724E18090010A5D4E80000E845
S11300907648170000E40B54020000CA9A3B0000A3
S11300A000E1F505000080969800000040420F0032
S11300B00000A08601000000102700000000E803F3
S11300C0000000006400000000000A0000000000BE
S11300D00100000000002C76D888DC674F0823DF7D
S11300E0C1DFAE59E1B1B796E5E3E453C63AE65150
S11300F0997696E8E6C28426EB898C9B62ED407C77
S11301006FFCEFBC9C9F40F2BAA56FA5F490055A12
S11301102AF75C936B6CF9676DC11BFCE0E40D4737
S1130120FEF520E6B500D0ED902E0300943577055A
S11301300080841E080000204E0A000000C80C3312
S11301403333330F986E12831141EF8D2114893BA1
S1130150E65516CFFEE6DB18D1844B381BF77C1D21
S1130160901DA4BBE424203284725E228100C9F174
S113017024ECA1E53D2711241FBECFEFD8E0DEBF5C
S1130180CDBF11E0A0E0B1E0EEE0F2E102C00590E5
S11301900D92AE31B107D9F721E0AEE1B1E001C073
S11301A01D92AD32B207E1F70E9466020C94050974
S11301B00C9400008BB184608BB982E08A95F1F7CE
S11301C000C08BB18B7F8BB98FE99FE00197F1F76A
S11301D000C0000008959BB19F709BB99BB1807FC4
S11301E0982B9BB90E94DA000895CF93C82F8BB146
S11301F08E7F8BB98BB18D7F8BB98C2F0E94EB00D6
S11302008C2F8295807F0E94EB00CF910895CF932D
S1130210C82F8BB181608BB98BB18D7F8BB98C2F3B
S11302200E94EB008C2F8295807F0E94EB00CF917F
S11302300895CF93DF93EC0103C021960E94070138
S113024088818111FACFDF91CF91089581E00E94D6
S1130250F5008FE99FE00197F1F700C000000895D1
S11302608FEF8AB92FE788E391E0215080409040D6
S1130270E1F700C0000082E00E94F50088E20E94DD
S1130280F5008CE00E94F50086E00E94F50081E014
S11302900E94F50008958FE081B98FEF82B984B18F
S11302A08C7F84B985B1836085B9089530E077C0C7
S11302B082B18F6082B922B1432F50E081E090E097
S11302C0032E02C0880F991F0A94E2F780958223B7
S11302D082B98DE08A95F1F7000020E02DC080B14D
S11302E0E22FF0E0BF016C5F7F4F90E0062E02C06A
S11302F0959587950A94E2F780FD1DC08FE39CE9EC
S11303000197F1F700C0000080B190E0062E02C012
S1130310959587950A94E2F780FFF6CFCA01880F76
S1130320991F480F591F440F551F40505F4FE40F4A
S1130330F51F808108952F5F243088F220E02CC0BF
S113034083B1622F70E090E0022E02C095958795EC
S11303500A94E2F780FD1FC08FE39CE90197F1F74F
S113036000C0000083B190E0062E02C095958795E9
S11303700A94E2F780FFF6CF6C5F7F4FFA01EE0F2D
S1130380FF1FE40FF51FEE0FFF1FE050FF4FE60FB6
S1130390F71F808108952F5F223090F23F5F343041
S11303A008F486CF80E008951092290110922A0162
S11303B010922B0110922C0110922501109226010B
S11303C010922701109228011092200110921F010F
S11303D010921E010E9426010895CF92DF92EF929F
S11303E0FF92809120018B3249F018F48A3261F136
S11303F05CC08D32B1F08F32D1F157C060912901C8
S113040070912A0180912B0190912C01209125015A
S11304103091260140912701509128010E941F0428
S113042050C06091290170912A0180912B01909113
S11304302C012091250130912601409127015091F2
S113044028010E941E043DC06091290170912A0177
S113045080912B0190912C0120912501309126014E
S113046040912701509128010E94B4052AC0C090F0
S11304702501D0902601E0902701F090280120E08A
S113048030E0A901C701B6010E948B048823B1F0B2
S11304906091290170912A0180912B0190912C0186
S11304A0A70196010E9490040CC0609129017091EB
S11304B02A0180912B0190912C0103C060E070E02F
S11304C0CB01FF90EF90DF90CF900895CF93DF930F
S11304D0CDB7DEB760970FB6F894DEBF0FBECDBFC1
S11304E00E9430010E944B0188E191E00E941901B1
S11304F00E945601F82E8823D9F383E4F81203C02E
S11305000E94D401F5CF80ED8F0D8A3008F05CC0D5
S113051080911E0181110E94D4018F2D0E94070138
S113052080911F01811127C020E030E040E251E4B6
S11305306091290170912A0180912B0190912C01E5
S11305400E94B4054B015C016F2D70E0605371098A
S1130550072E000C880B990B0E940405A501940139
S11305600E941F046093290170932A0180932B0138
S113057090932C0126C020E030E040E251E46091E9
S113058025017091260180912701909128010E94F4
S1130590B4054B015C016F2D70E060537109072EA7
S11305A0000C880B990B0E940405A50194010E947C
S11305B01F04609325017093260180932701909373
S11305C0280110921E0194CF8BE2F81649F08DE2B7
S11305D0F81631F08AE2F81619F08FE2F81235C0F5
S11305E080911F01813031F50E94ED016093290152
S11305F070932A0180932B0190932C011092250172
S11306001092260110922701109228010E942601BF
S11306106091290170912A0180912B0190912C0104
S11306208E010F5F1F4F22E048E00E947C06C80144
S11306300E941901F092200181E080931F01109221
S11306401E018F2D0E94070153CF8DE3F81226C09F
S11306500E94ED014B015C018E010F5F1F4F22E0F0
S113066048E00E947C060E942601C8010E941901EC
S11306708092290190922A01A0922B01B0922C0120
S11306801092250110922601109227011092280140
S113069010921F0181E080931E012ACF82E5F81297
S11306A022C06091290170912A0180912B019091BF
S11306B02C010E9427066093290170932A018093DC
S11306C02B0190932C018E010F5F1F4F22E048E015
S11306D00E947C060E942601C8010E94190181E043
S11306E080931E0105CF85E2F81226C020E030E099
S11306F048EC52E46091290170912A0180912B0108
S113070090912C010E9490046093290170932A0116
S113071080932B0190932C018E010F5F1F4F22E0D9
S113072048E00E947C060E942601C8010E9419012B
S113073081E080931E01DCCE83E5F81220C0809115
S1130740290190912A01A0912B01B0912C01BC01A7
S1130750CD0190586093290170932A0180932B0155
S113076090932C018E010F5F1F4F22E048E00E94FE
S11307707C060E942601C8010E941901B9CE80E5B9
S1130780F8121BC02091290130912A0140912B01BC
S113079050912C01609121017091220180912301DB
S11307A0909124010E941F046093210170932201FF
S11307B080932301909324019BCE8EE4F8121BC0F6
S11307C02091290130912A0140912B0150912C0153
S11307D06091210170912201809123019091240163
S11307E00E941E04609321017093220180932301CF
S11307F0909324017DCE8DE4F8127ACE609121018C
S11308007091220180912301909124016093290128
S113081070932A0180932B0190932C018E010F5F1A
S11308201F4F22E048E00E947C060E942601C80176
S11308300E94190181E080931E015ACE5058BB27B3
S1130840AA270E9436040C947A050E946C0538F09D
S11308500E94730520F039F49F3F19F426F40C9498
S113086069050EF4E095E7FB0C946305E92F0E94FB
S11308708B0558F3BA17620773078407950720F0AE
S113088079F4A6F50C94AD050EF4E0950B2EBA2F71
S1130890A02D0B01B90190010C01CA01A001112482
S11308A0FF27591B99F0593F50F4503E68F11A162E
S11308B0F040A22F232F342F4427585FF3CF4695BF
S11308C037952795A795F0405395C9F77EF41F16E1
S11308D0BA0B620B730B840BBAF09150A1F0FF0FAB
S11308E0BB1F661F771F881FC2F70EC0BA0F621F97
S11308F0731F841F48F4879577956795B795F79587
S11309009E3F08F0B0CF9395880F08F09927EE0F1B
S11309109795879508950E943F0508F481E008950E
S11309200E94A4040C947A050E94730558F00E9456
S11309306C0540F029F45F3F29F00C9463055111D4
S11309400C94AE050C9469050E948B0568F39923F9
S1130950B1F3552391F3951B550BBB27AA276217B7
S11309607307840738F09F5F5F4F220F331F441FC4
S1130970AA1FA9F335D00E2E3AF0E0E832D09150F8
S11309805040E695001CCAF72BD0FE2F29D0660FE5
S1130990771F881FBB1F261737074807AB07B0E828
S11309A009F0BB0B802DBF01FF2793585F4F3AF02E
S11309B09E3F510578F00C9463050C94AE055F3F9F
S11309C0E4F3983ED4F3869577956795B795F795B4
S11309D09F5FC9F7880F911D9695879597F908959C
S11309E0E1E0660F771F881FBB1F62177307840738
S11309F0BA0720F0621B730B840BBA0BEE1F88F747
S1130A00E0950895E89409C097FB3EF4909580958D
S1130A10709561957F4F8F4F9F4F9923A9F0F92FC0
S1130A2096E9BB279395F695879577956795B7953E
S1130A30F111F8CFFAF4BB0F11F460FF1BC06F5F24
S1130A407F4F8F4F9F4F16C0882311F096E911C036
S1130A50772321F09EE8872F762F05C0662371F057
S1130A6096E8862F70E060E02AF09A95660F771F6B
S1130A70881FDAF7880F9695879597F90895990F47
S1130A800008550FAA0BE0E8FEEF16161706E80754
S1130A90F907C0F012161306E407F50798F0621B75
S1130AA0730B840B950B39F40A2661F0232B242B4A
S1130AB0252B21F408950A2609F4A140A6958FEF69
S1130AC0811D811D089597F99F6780E870E060E0BB
S1130AD008959FEF80EC089500240A9416161706D3
S1130AE018060906089500240A941216130614061B
S1130AF005060895092E0394000C11F4882352F07E
S1130B00BB0F40F4BF2B11F460FF04C06F5F7F4F35
S1130B108F4F9F4F089557FD9058440F551F59F01C
S1130B205F3F71F04795880F97FB991F61F09F3FD6
S1130B3079F087950895121613061406551FF2CFFF
S1130B404695F1DF08C0161617061806991FF1CF4F
S1130B5086957105610508940895E894BB27662776
S1130B607727CB0197F908950E94C7050C947A055D
S1130B700E946C0538F00E94730520F0952311F053
S1130B800C9463050C94690511240C94AE050E9421
S1130B908B0570F3959FC1F3950F50E0551F629F2D
S1130BA0F001729FBB27F00DB11D639FAA27F00DC2
S1130BB0B11DAA1F649F6627B00DA11D661F829FE9
S1130BC02227B00DA11D621F739FB00DA11D621FCE
S1130BD0839FA00D611D221F749F3327A00D611DEB
S1130BE0231F849F600D211D822F762F6A2F1124CD
S1130BF09F5750409AF0F1F088234AF0EE0FFF1F00
S1130C00BB1F661F771F881F91505040A9F79E3F56
S1130C10510580F00C9463050C94AE055F3FE4F33A
S1130C20983ED4F3869577956795B795F795E795AC
S1130C309F5FC1F7FE2B880F911D9695879597F9B5
S1130C40089519F416F40C9469050C9467060E942F
S1130C509305B8F39923C9F3B6F39F57550B87FF50
S1130C600E9475060024A0E640EA9001805856953B
S1130C70979528F4805C660F771F881F20F026174D
S1130C803707480730F4621B730B840B2029312982
S1130C904A2BA69517940794202531254A2758F7FF
S1130CA0660F771F881F20F026173707480730F490
S1130CB0620B730B840B200D311D411DA09581F730
S1130CC0B901842F9158880F9695879508959F3F71
S1130CD031F0915020F4879577956795B795880FF3
S1130CE0911D9695879597F9089591505040660FF8
S1130CF0771F881FD2F70895EF920F931F93CF9316
S1130D00DF93E80147FD02C034E001C034E1042E62
S1130D10000C550B57FF03C0519541955109E32E23
S1130D20022F242FAE010E949C06CE01DF91CF91A9
S1130D301F910F91EF900895A9E0B0E0E2EAF6E088
S1130D400C94D4086A01122FB02E2BE3201720F044
S1130D50FF24F394F00E02C02CE3F22E0F2D27E0B3
S1130D60AE014F5F5F4F0E94F607BC014981842F9B
S1130D708970813031F0E1FC06C0E0FE06C090E2EB
S1130D8005C09DE203C09BE201C090E05E2D50715E
S1130D9043FF3CC0911102C083E001C084E081178D
S1130DA018F4212F281B01C020E051110BC0F601BB
S1130DB0822F30E2882319F031938150FBCFC20E89
S1130DC0D11C20E0992329F0D6019C93F601319699
S1130DD06F01C6010396E2FE0AC03EE4D6013C93CD
S1130DE041E411964C93119712963C9306C03EE64B
S1130DF0F601308341E641833283FC01322F40E225
S1130E00332309F442C041933150FACF42FF44C026
S1130E10911102C083E001C084E0811718F4212FEE
S1130E20281B01C020E051110BC0F601822F30E2D3
S1130E30882319F031938150FBCFC20ED11C20E0DE
S1130E40992329F0D6019C93F60131966F01C601CE
S1130E500396E2FE0BC039E4D6013C933EE41196BE
S1130E603C93119736E412963C9307C039E6F60199
S1130E7030833EE6318336E63283FC01322F40E292
S1130E80332319F041933150FBCFFC01E20FF11DE4
S1130E9010828EEF9FEFA6C021E030E0911102C0D6
S1130EA020E030E0161617061CF4FB01319602C050
S1130EB0E1E0F0E02E0F3F1FBB2021F0EB2DF0E02E
S1130EC0319602C0E0E0F0E02E0F3F1FE12FF0E08A
S1130ED02E173F071CF4121B212F01C020E08E2D7A
S1130EE0887159F4F601822F30E2882319F0319386
S1130EF08150FBCFC20ED11C20E0992329F0D601EA
S1130F009C93F60131966F0151110BC0F601822FAB
S1130F1090E3882319F091938150FBCFC20ED11C2A
S1130F2020E00F2D060F9A81342F307144FF03C047
S1130F30913309F40150101624F4093018F008E034
S1130F4001C001E0AB0177FF02C040E050E0FB01CB
S1130F50E41BF50BA1E0B0E0AC0FBD1FEA0FFB1FD3
S1130F608EE2A82E4B01801A91080B2D10E01195EA
S1130F70019511094F3FBFEF5B0721F4D601AC92F5
S1130F8011966D01641775072CF08416950614F4F8
S1130F90818101C080E3415051093196D6011196F7
S1130FA07D014017510724F0D6018C936701E2CFED
S1130FB06417750739F4963320F4953319F4311115
S1130FC001C081E3F6018083F701822F90E2882338
S1130FD019F091938150FBCFF701E20FF11D1082BC
S1130FE080E090E02996ECE00C94F008283008F0BA
S1130FF027E03327DA01990F311D87FD91600096B0
S11310006105710539F432602E5F3D9330E32A9512
S1131010E1F708959F3F30F080387105610509F0CC
S11310203C5F3C5F3D93913008F08068911DDF93F5
S1131030CF931F930F93FF92EF92192F987F96955A
S1131040E92F96959695E90FFF27EA52FF4F9927C6
S11310503327EE24FF24A701E701059008940794A1
S113106028F4360FE71EF81E491F511D660F771F1F
S1131070881F991F0694A1F70590079428F4E70E9A
S1131080F81E491F561FC11D770F881F991F661F21
S11310900694A1F70590079428F4F80E491F561FEB
S11310A0C71FD11D880F991F661F771F0694A1F7CC
S11310B00590079420F4490F561FC71FD81F990F96
S11310C0661F771F881F0694A9F7849110951770DF
S11310D041F0D695C79557954795F794E7941A9597
S11310E0C1F7ECE7F0E0689415901591359165919E
S11310F0959105907FE27395E118F10A430B560B25
S1131100C90BD009C0F7E10CF11E431F561FC91FBC
S1131110D01D7EF4703311F48A95E6CFE894015023
S113112030F0080F0AF40027021708F4202F239543
S1131130022F7A3328F079E37D932A95E9F710C0DA
S11311407D932A9589F60694979567953795179513
S11311501794E118F10A430B560BC90BD00998F008
S113116023957E9173957A3308F070E37C93201372
S1131170B8F77E9170617D9330F0839571E37D9330
S113118070E32A95E1F71124EF90FF900F911F91DE
S1131190CF91DF91992787FD909508952F923F92E3
S11311A04F925F926F927F928F929F92AF92BF9273
S11311B0CF92DF92EF92FF920F931F93CF93DF931F
S11311C0CDB7DEB7CA1BDB0B0FB6F894DEBF0FBE7C
S11311D0CDBF09942A88398848885F846E847D84C9
S11311E08C849B84AA84B984C884DF80EE80FD80CB
S11311F00C811B81AA81B981CE0FD11D0FB6F89441
S1111200DEBF0FBECDBFED010895F894FFCF01
S113120E433738392A2F533435362D4D2531323361
S111121E2B4E52302E3D2B5052454144590068
S9030000FC
